:020000040800F2
:100000008004002001010008931200084F1200082C
:1000100091120008650200081D140008000000008D
:10002000000000000000000000000000971200081F
:1000300067020008000000009512000899120008ED
:100040001B0100081B0100081B0100081B01000820
:100050001B0100081B0100081B0100081B01000810
:100060001B0100081B0100081B0100081B01000800
:100070001B0100081B0100081B0100081B010008F0
:100080001B0100081B0100081B0100081B010008E0
:100090001B0100081B0100081B0100081B010008D0
:1000A0001B0100081B0100081B0100081B010008C0
:1000B0001B0100081B0100081B0100081B010008B0
:1000C0001B0100081B0100081B0100081B010008A0
:1000D0001B0100081B0100081B0100081B01000890
:1000E0001B0100081B0100081B010008DFF80CD0F1
:1000F00000F048F800480047D517000880040020A9
:100100000648804706480047FEE7FEE7FEE7FEE7B1
:10011000FEE7FEE7FEE7FEE7FEE7FEE7FD1200086A
:10012000ED000008D2B201E000F8012B491EFBD21D
:1001300070470022F6E710B513460A4604461946F2
:10014000FFF7F0FF204610BD421C10F8011B0029EC
:10015000FBD1801A704730B50B46014600202022A3
:10016000012409E021FA02F59D4205D303FA02F5C4
:10017000491B04FA02F52844151EA2F10102F1DC24
:1001800030BD0000064C074D06E0E06840F001037A
:1001900094E8070098471034AC42F6D3FFF7AAFF63
:1001A00094180008B418000870B504460068816807
:1001B000C943C9071CD1816821F00101816000F0A9
:1001C00089FB05460FE000BF00F084FB401B0228BE
:1001D00009D9A06A40F01000A062E06A40F0010076
:1001E000E062012070BD20688068C043C007EBD08A
:1001F000002070BDF8B500260446009600688168AE
:10020000C943C90728D0816841F0010181601348C2
:1002100013490068B0FBF1F000E0401E0090002898
:10022000FBD100F057FB054611E000BF00F052FB88
:10023000401B02280BD9A06A40F01000A062E06ABF
:1002400040F00100E06284F824600120F8BD2068DD
:100250008068C043C007E9D10020F8BD0C00002031
:1002600040420F00FEE77047F8B50024009490F874
:1002700024202546012A12D0012280F824204A6831
:100280001F23072A0DD20668776B521E02EB8202EB
:1002900093409F430B6893401F43776319E002200C
:1002A000F8BD06680D2A0AD2376BD21F02EB820214
:1002B00093409F430B6893401F43376309E0F76AFD
:1002C0000D3A02EB820293409F430B6893401F4319
:1002D000F7620A68072306680A2A0AD3F7680A3A07
:1002E00002EB420293409F438B6893401F43F760A9
:1002F00008E0376902EB420293409F438B689340CA
:100300001F4337610A68102A01D0112A20D1124BED
:1003100002689A4217D193681B0219D4936843F478
:10032000000393600968102912D10C490C4A09682E
:10033000B1FBF2F101EB8101490000E0491E00919F
:100340000029FBD104E0816A41F02001816201248F
:1003500080F824502046F8BD002401400C00002005
:1003600040420F000068C06C704700002DE9F0416A
:100370004FF0000704003D467ED0A06A002628B951
:10038000E66284F82460204600F07EF82046FFF7FD
:100390000BFFA16AC90600D420B1A06A40F010008A
:1003A000A06269E0A16A21F4885141F00201A162D2
:1003B0006268E169237B0A4347EA43010A43A16873
:1003C0004FF48077B94209D0012907D05FF00001CE
:1003D00094F814C0BCF1010F02D00AE03946F7E7E7
:1003E000F3B1A36A43F02003A362E36A43F001037D
:1003F000E3622368D3F804C02CF4694C4CEA010C86
:10040000C3F804C021688B68DFF870C003EA0C03EE
:1004100013438B60A168B9420BD0012909D00CE0CD
:10042000DFF85CC0A3690CEB43330B4343F400617A
:10043000DFE7218A0D05A5F580152168CB6A23F435
:1004400070032B43CB62216889680E4B194091429F
:1004500008D1E662A16A21F0020141F00101A16226
:10046000BDE8F081A06A20F0020040F01000A06218
:10047000E06A40F00100E0620120F1E7FDF7E1FFF2
:1004800000E0FFFFFE0E1FFF00B585B000210091C8
:1004900001910291039100680E49884217D10E48DC
:1004A000816941F400718161816901F400710491F5
:1004B000816941F0040181618069694600F00400AE
:1004C0000490032000900190044800F013F905B057
:1004D00000BD00000024014000100240000801405F
:1004E0002DE9F84300260D460446009600F0F2F987
:1004F000804620688168C90508D5A06A40F02000C0
:10050000A06284F824600120BDE8F8834168C90531
:1005100003D4C06A10F4700F26D0022000F06AFAEB
:1005200038490968B1FBF0F72068036936490B4286
:100530004FEA61014FEAA1121BD1C3684FEA611C67
:1005400013EA0C0F15D103690B4221D1C068104288
:100550001ED114201FE0681C06D045B300F0BAF984
:10056000A0EB0800A84222D8206800688007F2D5D6
:100570002AE003690B4202D1C168114206D0026928
:1005800022490A4206D1C068084203D1542002E041
:10059000292000E0FC204743009813E0681C0ED09F
:1005A0002DB100F097F9A0EB0800A84207D9A06A86
:1005B00040F00400A06284F824600320A4E70098BF
:1005C000401C0090B842E9D321686FF01200086027
:1005D000A06A40F40070A06220688068C0F34240C6
:1005E00007280CD1207B50B9A06A20F48070A0624B
:1005F000A06AC00403D4A06A40F00100A0620020F9
:1006000082E700000C000020244992244992240033
:1006100070B5044690F8240001280DD0012084F81C
:1006200024002046FFF7E6FD02004FF0000005D051
:1006300084F82400104670BD022070BDA16A40F20B
:100640000123994341F48071A1621F4D23681F4922
:10065000AB4218D10E6816F4702F14D0A66A46F477
:100660008016A6620E68760505D5A66A26F40056A1
:1006700046F48056A662A66AF6040AD5E66A26F013
:100680000606E66206E0A66A26F48016A6625E68A2
:10069000E9E7E06284F824006FF002001860206847
:1006A0008368C3F34243072B05D1A84208D10968E8
:1006B00011F4702F04D0816841F480118160B9E792
:1006C000816841F4A001F9E70028014004240140B9
:1006D00070B5044600F0FEF80546601C02D00448E0
:1006E0000078044400F0F6F8401BA042FAD370BD35
:1006F000000000202DE9F84FDFF8B891002409F13F
:10070000040A0AF1040B23460F270BF1040EC9E07B
:100710000125A5402A40AA427DD1674ED1F804C0E8
:10072000ACEB0608B44532D014DCBCF1030F3AD070
:1007300009DCBCF1000F2AD0BCF1010F1CD0BCF1C8
:10074000020F31D11DE0BCF1110F17D0BCF1120F17
:100750002AD119E0B8F5881F19D006DCB8F5803F1A
:1007600015D0B8F5801F1FD111E0B8F5001F0ED0CD
:10077000B8F5041F18D10AE0CB6815E0CB681B1D43
:1007800012E0CB6808330FE0CB680C330CE08B68C9
:100790002BB1012B4FF0080303D0456104E0042383
:1007A00002E0056100E00023FF2A01D8064601E0CF
:1007B00000F104064FEA840501D9A5F12005D6F819
:1007C000008007FA05FC28EA0C0803FA05F548EA58
:1007D0000508C6F800804D68ED0062D5374DAE695A
:1007E00046F00106AE61AD6924F0030605F001058F
:1007F0000095334D06EB050CDCF80850A607360FC4
:1008000007FA06F825EA0805DFF8B880404503D165
:100810004FF0000817E044E0DFF8AC80404502D11B
:100820004FF001080FE0DFF8A480404502D14FF0FF
:10083000020808E0DFF89880404502D14FF0030835
:1008400001E04FF0040808FA06F848EA0508CCF879
:1008500008804D68D9F80060ED034D4601D5164378
:1008600000E096432E604D68DAF80060AD0355460F
:1008700001D5164300E096432E604D68DBF800601A
:10088000ED025D4601D5164300E096432E604D68AB
:10089000DEF80060AD02754601D5164300E09643D0
:1008A0002E60641C0D682A46E5407FF431AFBDE838
:1008B000F88F0000000401400000111000100240F9
:1008C0000000014000080140000C01400010014000
:1008D00000140140014880687047000000000020BB
:1008E000024881680278114481607047000000204E
:1008F000074810B5016841F010010160032000F0C5
:1009000067F8002000F006F800F024F8002010BD81
:100910000020024070B50D4D04464FF47A712878DE
:10092000B1FBF0F00A490968B1FBF0F000F0B8FB48
:1009300048B9102C07D200222146501E00F028F89A
:1009400000206C6070BD012070BD00000000002020
:100950000C0000200C4808B5816941F0010181615B
:10096000816901F001010091C16941F08051C161CB
:10097000C06900F0805000900448416821F0E061B7
:1009800041F08061416008BD00100240000001405C
:10099000F0B40E4B1B680C46C3F30223C3F10705EA
:1009A000042D00D90425191D072901D2002300E0D8
:1009B000DB1E012606FA05F1491E214099409E40A2
:1009C000761E16403143F0BC00F03EBD0CED00E059
:1009D000064900F0070208684FF6FF03184040EA96
:1009E0000220034A10430860704700000CED00E04D
:1009F0000000FA0510B529A401461DCC86B08DE88B
:100A00001D002AA02A4C006804900020012923D050
:100A100002293AD010291DD161682268D20119D566
:100A2000C1F38342C9031DF8020009D5616804AA15
:100A3000C1F34041515C1F4AB2FBF1F1484301E070
:100A40001D4948436168490204D440005FF0030136
:100A5000B0FBF1F006B010BD226AC2F301210129FA
:100A600003D1920701D5C803F4E7022905D1626AD0
:100A7000920702D549F64040ECE70329EAD1216804
:100A80008903E7D54FF22440E4E700F033F96168C9
:100A9000C1F38131491C4900DAE700000203040573
:100AA000060708090A0B0C0D0E0F101001020000BA
:100AB0000010024000127A0000093D002DE9F843C1
:100AC00005460078354CC00754D0E0690026C000C8
:100AD00008D4E06940F08050E061E069012600F050
:100AE000805000902E480168C90512D401688046E4
:100AF00041F480710160FFF7EDFE074605E000BF9D
:100B0000FFF7E8FEC01B642823D8D8F80000C00512
:100B1000F6D5206A10F4407021D0A98801F4407104
:100B200081421CD0206A1F49012220F440700A60D3
:100B300000220A602062C00711D0FFF7CBFE0746F3
:100B400041F2883808E000BFFFF7C4FEC11B4145F1
:100B500002D90320BDE8F883206A8007F4D5206A13
:100B6000696820F44070084320621EB1E06920F0FB
:100B70008050E0612878800705D56068A96820F476
:100B80004040084360602878C00605D56068E96881
:100B900020F48000084360600020DBE70010024082
:100BA00000700040400442422DE9F0470F46050026
:100BB00061D0434E306800F00700B84209D2306877
:100BC00020F0070038433060306800F00700B8427A
:100BD00051D128683B4C810712D5400703D5606886
:100BE00040F4E06060602878000703D5606840F456
:100BF000605060606068A96820F0F00008436060A1
:100C00002878C00728D06868012810D021680228F9
:100C100010D0890700292EDA616821F00301014311
:100C20006160FFF757FE804641F288390DE0216888
:100C30008903EFE78901EDE7FFF74CFEA0EB080120
:100C4000494502D90320BDE8F0876068696800F073
:100C50000C00B0EB810FEFD1306800F00700B84214
:100C60000BD9306820F0070038433060306800F05E
:100C70000700B84201D00120E5E72878400705D5F4
:100C80006068E96820F4E060084360602878000745
:100C900006D56068296920F4605040EAC1006060B0
:100CA00000F038F86168084AC1F30311515CC8408C
:100CB0000649086006480068FFF72CFE0020C2E7DE
:100CC00000200240001002407C1800080C000020A8
:100CD000040000200448054900684968044AC1F33B
:100CE0000221515CC84070470C00002000100240F7
:100CF0008C1800080448054900684968044AC1F393
:100D0000C221515CC84070470C0000200010024016
:100D10008C18000812A185B00FC98DE80F0014A02F
:100D2000144A006804905168134801F00C03042B26
:100D300010D0082B0ED1C1F38343C9031DF8030063
:100D40000AD5516804AAC1F34041515C0A4A504394
:100D5000B0FBF1F005B0704708494843FAE70000DE
:100D600002030405060708090A0B0C0D0E0F1010EC
:100D7000010200000010024000127A0000093D004C
:100D80002DE9F84F040070D02078C04DC00749D03D
:100D90006868C0F38100012807D06868C0F381004B
:100DA000022809D16868C00306D52868800339D5B0
:100DB00060680028E7D035E06068B0F5803F0BD070
:100DC00010B1B0F5A02F11D0286820F48030286031
:100DD000286820F4802002E0286840F480302860F1
:100DE000606890B1FFF776FD06460AE0286840F497
:100DF00080202860F0E700BFFFF76CFD801B6428AF
:100E000073D828688003F7D50CE0FFF763FD06462A
:100E100005E000BFFFF75EFD801B6428F0D828685E
:100E20008003F7D420789A4E80074FF001094FF0E5
:100E3000000839D5686810F00C0F07D06868C0F357
:100E40008100022809D16868C00306D42868800799
:100E500014D52069012808D110E02069B0B1C6F886
:100E60000090FFF737FD074605E00AE1FFF732FD86
:100E7000C01B0228C4D828688007F7D52868616994
:100E800020F0F80040EAC10028600DE0C6F80080BC
:100E9000FFF720FD074604E0FFF71CFDC01B0228FA
:100EA00023D828688007F7D4207800072CD5794804
:100EB000A169D9B1C0F80090FFF70CFD074604E026
:100EC000FFF708FDC01B02280FD8686A8007F7D516
:100ED00071484FF4FA510068B0FBF1F0009000BF88
:100EE0000098411E0091FAD20EE080E0C0F8008028
:100EF000FFF7F0FC074604E0FFF7ECFCC01B0228FC
:100F000075D8686A8007F7D42078400760D5E8690B
:100F10000027C00008D4E86940F08050E861E86923
:100F2000012700F0805000905C480168C90513D487
:100F30000168834641F480710160FFF7CBFC824673
:100F400006E000BFFFF7C6FCA0EB0A0064284ED8FD
:100F5000DBF80000C005F5D5E06801280AD008B12B
:100F6000052813D0286A20F001002862286A20F0A2
:100F7000040002E0286A40F001002862E06841F2C3
:100F8000883B98B1FFF7A6FC82460BE0286A40F048
:100F900004002862EEE700BFFFF79CFCA0EB0A010B
:100FA00059455AD8286A8007F6D50CE0FFF792FC1D
:100FB000824605E0FFF78EFCA0EB0A0159454CD8AC
:100FC000286A8007F6D41FB1E86920F08050E861F4
:100FD000E06988B36968C1F38101022944D002281D
:100FE000C6F8608004D0FFF775FC044638E034E0B2
:100FF000FFF770FC074604E0FFF76CFCC01B0228FB
:101000002BD828688001F7D4206AB0F5803F05D13D
:101010006868A16820F4003008436860D4E90801DA
:101020000843696821F4741108436860C6F8609049
:10103000FFF750FC044606E025E000BFFFF74AFC3E
:10104000001B022809D828688001F7D51BE000BFE3
:10105000FFF740FC001B022802D90320BDE8F88FEF
:1010600028688001F4D40EE00128F7D06868226A6D
:1010700000F48031914204D1616A00F4701088421A
:1010800001D00120EAE70020E8E70000001002405C
:1010900000004242800442420C00002000700040E8
:1010A00010B5401EB0F1807F01D3012010BD4FF07C
:1010B000E02460610F21601700F0C6F90020A061F4
:1010C00007202061002010BD70B5040004D094F802
:1010D0003900002510B106E0012070BD84F83850B9
:1010E000204600F023F8242084F839002068C168E5
:1010F00021F40051C160204600F002F92068016926
:1011000021F4904101612068416921F02A01416187
:101110002068C16841F40051C160E563202084F873
:10112000390084F83A00002070BD000030B585B069
:1011300000240094019402940394006814498842A6
:1011400024D11448816941F480418161816901F4AD
:1011500080410491816941F00401816180690E4DF3
:1011600000F0040004904FF4007000900220019001
:101170000320039069462846FFF7BCFA2815CDE9FD
:101180000004694628460294FFF7B4FA05B030BD62
:101190000038014000100240000801402DE9F843EA
:1011A000044690F839001F4616460D4620284CD1BB
:1011B000C5B1BEB194F83800012846D0012084F8AA
:1011C00038004FF00008C4F83C80212084F8390032
:1011D000FFF780FBA6848146E684A068B0F5805FB7
:1011E00003D004E00120BDE8F883206928B12E4631
:1011F0005FF0000584F838800EE00026FAE78021D1
:10120000204600F0D9F8A0B9AEB116F8010B21685C
:101210004860E08C401EE084E08C4B464FF00002BA
:1012200000970028EBD14FF04001204600F0C4F8B1
:1012300030B10320D7E735F8020BC0F30800E6E72A
:10124000202084F839000020CDE70220CBE7FEE71C
:101250003EB500240D480094019402940A4984602C
:10126000016001250573047505614FF46021446038
:10127000C161FFF77BF8CDE9004569460348029458
:10128000FEF7F2FF3EBD00000024014010000020E8
:10129000FEE7704770477047FFF722BB30B593B049
:1012A00028216846FEF745FF14210AA8FEF741FFF2
:1012B000002401200F9410941194010412948DE8DD
:1012C000130004904FF4E010CDE9081002250795B3
:1012D0006846FFF755FD0F20CDE90A056802CDE904
:1012E0000C4002210AA80E94FFF75EFCA80311909F
:1012F0000F950FA8FFF7E2FB13B030BD7047000059
:1013000070B5044600680169E26821F44051114358
:1013100001612169A0680843616908432168CA68BE
:1013200041F20C639A430243CA6020684169A26992
:1013300021F44071114341611E492068884202D165
:10134000FFF7D8FC01E0FFF7C5FC00EBC00101EBA3
:101350000012606864218000B2FBF0F3B3FBF1F38C
:101360006FF018067343B2FBF0F5B2FBF0F605EB35
:101370008305322303EB0515B5FBF1F5B6FBF1F65A
:1013800005F0F00505EB0615B2FBF0F6B2FBF0F048
:10139000B0FBF1F06FF01802504306EB800003EB56
:1013A0000010B0FBF1F0216800F00F0028448860C5
:1013B00070BD0000003801402DE9F0419846174605
:1013C0000E460446069D1DE0681C1BD02DB1FFF79C
:1013D00081FAA0EB0800A84214D92068C16821F462
:1013E000D071C1602068416921F001014161202074
:1013F00084F8390084F83A00002084F8380003208B
:10140000BDE8F0812068006836EA000004D00020C2
:10141000B842D9D00020F3E70120F9E7FEE7000049
:101420000FB4084B10B504A902AA039800F02CF8D9
:10143000044602A9002000F0C8F9204610BC5DF85F
:1014400014FB0000CB1700080907090E002804DB75
:1014500000F1E02080F80014704700F00F0000F168
:10146000E02080F8141D704702E008C8121F08C170
:10147000002AFAD170477047002001E001C1121F15
:10148000002AFBD1704700002DE9FF4F8BB0884642
:101490000546002606E025280BD0DDE90D12904711
:1014A0006D1C761C28780028F5D10FB03046BDE8B9
:1014B000F08F0024A146A2460122AE4900E0044379
:1014C00015F8013F203B02FA03F00842F7D12878D3
:1014D0002A2810D06FF02F022878A0F130010929B6
:1014E00015D809EB890102EB410144F0020400EB3D
:1014F00001096D1CF0E758F8041B5FEA010903D5E8
:1015000044F40054C9F1000944F002046D1C287829
:101510002E2817D115F8010F44F004042A280ED004
:101520006FF02F022878A0F1300109290AD80AEBC0
:101530008A0102EB410100EB010A6D1CF2E758F849
:1015400004AB6D1C28786C280FD006DC4C2817D013
:1015500068280DD06A2814D104E0742810D07A28A5
:101560000FD10DE044F400140AE044F4801401E0CB
:1015700044F440146978814202D104F580146D1C52
:101580006D1C2878692865D006DC00288DD063287A
:1015900027D0642806D15DE06E2808D073282AD0B1
:1015A000752877D0DDE90D129047761CE0E0C4F392
:1015B0000250022809D003280DD0D8F800100428C2
:1015C0000DD00E6008F10408D2E0D8F80010F21730
:1015D000C1E90062F6E7D8F800100E80F2E70E705D
:1015E000F0E718F8041B8DF8001000208DF80100BA
:1015F000EB46012003E058F804BB4FF0FF306107D1
:101600004FF0000701D40AE07F1C57450DDA8742EE
:10161000FADB1BF807100029F6D106E07F1C874291
:10162000FCDB1BF807100029F8D1DDE90D23A9EB3D
:1016300007008146214600F0B1F83044C61904E0A5
:10164000DDE90D121BF8010B90477F1EF8D22146F1
:10165000484688E058F8040BC4F302514FF00A0BD7
:10166000032900D100B2042900D140B2002802DAD7
:1016700040422D2102E0210505D52B218DF82410B3
:10168000012104E006E0E10710D02021F6E708AFD1
:10169000089113E058F8040BC4F302514FF00A0B01
:1016A000032900D180B2042900D1C0B20021EEE7A5
:1016B0005946FEF750FD303107F8011D0028F7D1DB
:1016C000ADEB070000F1200B600702D524F4803455
:1016D00001E04FF0010ADA4502DDAAEB0B0000E061
:1016E0000020824600EB0B0108980144A9EB0100A1
:1016F0000A90E00306D4DDE90D2321460A9800F0A4
:101700004DF806444FF0000908E009A911F8090056
:10171000DDE90D12904709F10109761C0899894508
:10172000F3DBE0030CD5DDE90D2321460A9800F038
:1017300035F8064404E0DDE90D1230209047761CB0
:10174000BAF10001AAF1010AF5DC05E0DDE90D12AC
:1017500017F8010B9047761CBBF10001ABF1010BB0
:10176000F4DC0A982146DDE90D2300F005F8064473
:101770006D1C97E6092801002DE9F041044600257B
:101780001E461746880404D405E039462020B04799
:101790006D1C641EF9D52846BDE8F0812DE9F041A5
:1017A000044600251E469046C80301D5302700E0B8
:1017B0002027880404D505E041463846B0476D1C13
:1017C000641EF9D52846BDE8F0810A68531C0B60F9
:1017D000107070471FB5FFF78BF8FFF75FFD2248C9
:1017E000816941F020018161816901F0200103914B
:1017F000816941F004018161806900F00400039077
:10180000FFF726FD1A4819490C2201604FF41651C2
:10181000416000218160C160C0E904128161C16141
:10182000FFF752FC4FF0FF3411483038FEF7F0FE5E
:101830000F4821463038FEF753FE0D483038FEF78A
:1018400091FD85B26420FEF743FF2A4609A1684650
:10185000FFF7E6FD6846FEF777FC82B2234669464D
:101860000348FFF79BFCDFE700100240003801400F
:10187000400000202568750A0000000000000000FC
:101880000000000001020304060708090000000030
:1018900001020304B418000800000020100000003A
:1018A00068140008C418000810000020700400002C
:1018B0007814000801000000100000000000000083
:0418C0000024F4000C
:04000005080000ED02
:00000001FF
